:02000000FE2FD1
:100EEA00831603130F178F160F160F150610861089
:100EFA00061186110612861206138613831203132D
:100F0A0086018312031306160B30F2002630F10015
:100F1A005D30F000F00B8F2FF10B8F2FF20B8F2F1C
:100F2A00962F83120313061486163330F200BB3051
:100F3A00F100DF30F000F00BA02FF10BA02FF20B25
:100F4A00A02FA72F83120313861206103330F20044
:100F5A00BB30F100DF30F000F00BB12FF10BB12FF5
:100F6A00F20BB12FB82F831203138614861633306F
:100F7A00F200BB30F100DF30F000F00BC22FF10BB2
:100F8A00C22FF20BC22FC92F8312031386128610A7
:100F9A003330F200BB30F100DF30F000F00BD32F1A
:100FAA00F10BD32FF20BD32FDA2F8312031306156B
:100FBA0086163330F200BB30F100DF30F000F00B60
:100FCA00E42FF10BE42FF20BE42FEB2F8312031320
:100FDA008612061106126630F2007630F100C13030
:100FEA00F000F00BF62FF10BF62FF20BF62F862FEF
:060FFA0000288301752FA1
:02400E00183F59
:00000001FF
